{
  "contractName": "CandidateSide",
  "abi": [
    {
      "constant": true,
      "inputs": [
        {
          "name": "",
          "type": "uint64"
        }
      ],
      "name": "Candidate_keys",
      "outputs": [
        {
          "name": "",
          "type": "bytes32"
        }
      ],
      "payable": false,
      "stateMutability": "view",
      "type": "function"
    },
    {
      "constant": true,
      "inputs": [
        {
          "name": "",
          "type": "uint64"
        }
      ],
      "name": "voters",
      "outputs": [
        {
          "name": "vote_given",
          "type": "bool"
        },
        {
          "name": "vote_given_to",
          "type": "bytes32"
        }
      ],
      "payable": false,
      "stateMutability": "view",
      "type": "function"
    },
    {
      "constant": true,
      "inputs": [
        {
          "name": "",
          "type": "uint64"
        }
      ],
      "name": "Candidates",
      "outputs": [
        {
          "name": "name",
          "type": "string"
        },
        {
          "name": "poll_Id",
          "type": "uint64"
        },
        {
          "name": "post",
          "type": "string"
        },
        {
          "name": "key",
          "type": "bytes32"
        },
        {
          "name": "vote_Count",
          "type": "uint64"
        },
        {
          "name": "candidate_Address",
          "type": "string"
        }
      ],
      "payable": false,
      "stateMutability": "view",
      "type": "function"
    },
    {
      "constant": true,
      "inputs": [
        {
          "name": "",
          "type": "uint64"
        }
      ],
      "name": "Key",
      "outputs": [
        {
          "name": "",
          "type": "bytes32"
        }
      ],
      "payable": false,
      "stateMutability": "view",
      "type": "function"
    },
    {
      "inputs": [],
      "payable": false,
      "stateMutability": "nonpayable",
      "type": "constructor"
    },
    {
      "constant": true,
      "inputs": [
        {
          "name": "roll_no",
          "type": "uint64"
        },
        {
          "name": "key",
          "type": "bytes32"
        }
      ],
      "name": "validation",
      "outputs": [
        {
          "name": "",
          "type": "bool"
        }
      ],
      "payable": false,
      "stateMutability": "view",
      "type": "function"
    },
    {
      "constant": false,
      "inputs": [
        {
          "name": "roll_no",
          "type": "uint64"
        }
      ],
      "name": "addvoter",
      "outputs": [],
      "payable": true,
      "stateMutability": "payable",
      "type": "function"
    },
    {
      "constant": true,
      "inputs": [
        {
          "name": "vid",
          "type": "uint64"
        }
      ],
      "name": "getvoterkey",
      "outputs": [
        {
          "name": "",
          "type": "bytes32"
        }
      ],
      "payable": false,
      "stateMutability": "pure",
      "type": "function"
    },
    {
      "constant": false,
      "inputs": [
        {
          "name": "roll_no",
          "type": "uint64"
        },
        {
          "name": "candidate",
          "type": "uint64"
        },
        {
          "name": "key",
          "type": "bytes32"
        }
      ],
      "name": "Vote",
      "outputs": [],
      "payable": true,
      "stateMutability": "payable",
      "type": "function"
    }
  ],
  "bytecode": "0x608060405234801561001057600080fd5b5033600260006101000a81548173ffffffffffffffffffffffffffffffffffffffff021916908373ffffffffffffffffffffffffffffffffffffffff160217905550610d4e806100616000396000f3fe60806040526004361061007b5760003560e01c8063622dcdf61161004e578063622dcdf6146101fd57806371fa6747146103d0578063b25b153414610426578063db09557c1461045e5761007b565b806332b4ae74146100805780633bc13a23146100e7578063566ae59a146101405780635835a0d114610199575b600080fd5b34801561008c57600080fd5b506100cd600480360360408110156100a357600080fd5b81019080803567ffffffffffffffff169060200190929190803590602001909291905050506104b7565b604051808215151515815260200191505060405180910390f35b3480156100f357600080fd5b5061012a6004803603602081101561010a57600080fd5b81019080803567ffffffffffffffff1690602001909291905050506104fb565b6040518082815260200191505060405180910390f35b34801561014c57600080fd5b506101836004803603602081101561016357600080fd5b81019080803567ffffffffffffffff16906020019092919050505061053f565b6040518082815260200191505060405180910390f35b3480156101a557600080fd5b506101dc600480360360208110156101bc57600080fd5b81019080803567ffffffffffffffff169060200190929190505050610557565b60405180831515151581526020018281526020019250505060405180910390f35b34801561020957600080fd5b506102406004803603602081101561022057600080fd5b81019080803567ffffffffffffffff169060200190929190505050610588565b60405180806020018767ffffffffffffffff1667ffffffffffffffff168152602001806020018681526020018567ffffffffffffffff1667ffffffffffffffff1681526020018060200184810384528a818151815260200191508051906020019080838360005b838110156102c25780820151818401526020810190506102a7565b50505050905090810190601f1680156102ef5780820380516001836020036101000a031916815260200191505b50848103835288818151815260200191508051906020019080838360005b8381101561032857808201518184015260208101905061030d565b50505050905090810190601f1680156103555780820380516001836020036101000a031916815260200191505b50848103825285818151815260200191508051906020019080838360005b8381101561038e578082015181840152602081019050610373565b50505050905090810190601f1680156103bb5780820380516001836020036101000a031916815260200191505b50995050505050505050505060405180910390f35b610424600480360360608110156103e657600080fd5b81019080803567ffffffffffffffff169060200190929190803567ffffffffffffffff169060200190929190803590602001909291905050506107b4565b005b61045c6004803603602081101561043c57600080fd5b81019080803567ffffffffffffffff169060200190929190505050610b94565b005b34801561046a57600080fd5b506104a16004803603602081101561048157600080fd5b81019080803567ffffffffffffffff169060200190929190505050610d0a565b6040518082815260200191505060405180910390f35b6000816000808567ffffffffffffffff1667ffffffffffffffff1681526020019081526020016000205414156104f057600190506104f5565b600090505b92915050565b600081604051602001808267ffffffffffffffff1667ffffffffffffffff168152602001915050604051602081830303815290604052805190602001209050919050565b60036020528060005260406000206000915090505481565b60016020528060005260406000206000915090508060000160009054906101000a900460ff16908060010154905082565b6004602052806000526040600020600091509050806000018054600181600116156101000203166002900480601f0160208091040260200160405190810160405280929190818152602001828054600181600116156101000203166002900480156106345780601f1061060957610100808354040283529160200191610634565b820191906000526020600020905b81548152906001019060200180831161061757829003601f168201915b5050505050908060010160009054906101000a900467ffffffffffffffff1690806002018054600181600116156101000203166002900480601f0160208091040260200160405190810160405280929190818152602001828054600181600116156101000203166002900480156106ec5780601f106106c1576101008083540402835291602001916106ec565b820191906000526020600020905b8154815290600101906020018083116106cf57829003601f168201915b5050505050908060030154908060040160009054906101000a900467ffffffffffffffff1690806005018054600181600116156101000203166002900480601f0160208091040260200160405190810160405280929190818152602001828054600181600116156101000203166002900480156107aa5780601f1061077f576101008083540402835291602001916107aa565b820191906000526020600020905b81548152906001019060200180831161078d57829003601f168201915b5050505050905086565b6107be83826104b7565b610830576040517f08c379a000000000000000000000000000000000000000000000000000000000815260040180806020018281038252600d8152602001807f496e76616c696420566f7465720000000000000000000000000000000000000081525060200191505060405180910390fd5b6000808467ffffffffffffffff1667ffffffffffffffff1681526020019081526020016000205483604051602001808267ffffffffffffffff1667ffffffffffffffff1681526020019150506040516020818303038152906040528051906020012014610905576040517f08c379a000000000000000000000000000000000000000000000000000000000815260040180806020018281038252600b8152602001807f4e6f74206120766f74657200000000000000000000000000000000000000000081525060200191505060405180910390fd5b600360008367ffffffffffffffff1667ffffffffffffffff1681526020019081526020016000205482604051602001808267ffffffffffffffff1667ffffffffffffffff16815260200191505060405160208183030381529060405280519060200120146109db576040517f08c379a000000000000000000000000000000000000000000000000000000000815260040180806020018281038252600f8152602001807f4e6f7420612043616e646964617465000000000000000000000000000000000081525060200191505060405180910390fd5b60001515600160008567ffffffffffffffff1667ffffffffffffffff16815260200190815260200160002060000160009054906101000a900460ff16151514610a8c576040517f08c379a000000000000000000000000000000000000000000000000000000000815260040180806020018281038252601f8152602001807f496e76616c696420566f746520616c726561647920766f746520676976656e0081525060200191505060405180910390fd5b6001600460008467ffffffffffffffff1667ffffffffffffffff16815260200190815260200160002060040160008282829054906101000a900467ffffffffffffffff160192506101000a81548167ffffffffffffffff021916908367ffffffffffffffff16021790555060018060008567ffffffffffffffff1667ffffffffffffffff16815260200190815260200160002060000160006101000a81548160ff021916908315150217905550600360008367ffffffffffffffff1667ffffffffffffffff16815260200190815260200160002054600160008567ffffffffffffffff1667ffffffffffffffff16815260200190815260200160002060010181905550505050565b6000801b6000808367ffffffffffffffff1667ffffffffffffffff1681526020019081526020016000205414610c32576040517f08c379a000000000000000000000000000000000000000000000000000000000815260040180806020018281038252600f8152602001807f416c7265616479206120766f746572000000000000000000000000000000000081525060200191505060405180910390fd5b60405180604001604052806000151581526020016000801916815250600160008367ffffffffffffffff1667ffffffffffffffff16815260200190815260200160002060008201518160000160006101000a81548160ff0219169083151502179055506020820151816001015590505080604051602001808267ffffffffffffffff1667ffffffffffffffff168152602001915050604051602081830303815290604052805190602001206000808367ffffffffffffffff1667ffffffffffffffff1681526020019081526020016000208190555050565b6000602052806000526040600020600091509050548156fea165627a7a723058203716fda6e28b0f2cfff21798dc64693b199fc30c1ffaccd25bae079a9b8d06f50029",
  "source": "pragma solidity ^0.5.0;\n\ncontract CandidateSide {\n  //Voters\n  mapping(uint64 => bytes32) public Key;\n  struct Voter{\n    bool vote_given;\n    bytes32 vote_given_to;\n  }\n  mapping(uint64 => Voter) public voters;\n  constructor() public {\n    owner = msg.sender;\n    }\n  function validation(uint64 roll_no, bytes32 key) public view returns(bool){\n    if(Key[roll_no]==key)\n      return true;\n    else\n      return false;\n  }\n  function addvoter(uint64 roll_no) public payable{\n    require(Key[roll_no]==0x0,\"Already a voter\");\n    voters[roll_no] = (Voter(false, \"\"));\n    Key[roll_no] = keccak256(abi.encode(roll_no));\n  }\n\n  function getvoterkey(uint64 vid) public pure returns(bytes32){\n    return keccak256(abi.encode(vid));\n  }\n\n  //Candidate\n  address owner;\n  struct Candidate{\n    string name;\n    uint64 poll_Id;\n    string post;\n    bytes32 key;\n    uint64 vote_Count;\n    string candidate_Address;\n  }\n\n  mapping(uint64 => bytes32) public Candidate_keys;\n  mapping(uint64 => Candidate) public Candidates;\n  function Vote(uint64 roll_no, uint64 candidate, bytes32 key) public payable {\n    require(validation(roll_no, key),\"Invalid Voter\");\n    require(keccak256(abi.encode(roll_no)) == Key[roll_no],\"Not a voter\");\n    require(keccak256(abi.encode(candidate)) == Candidate_keys[candidate], \"Not a Candidate\");\n    require(voters[roll_no].vote_given == false, \"Invalid Vote already vote given\");\n\n    Candidates[candidate].vote_Count += 1;\n    voters[roll_no].vote_given = true;\n    voters[roll_no].vote_given_to = Candidate_keys[candidate];\n\n  }\n}\n",
  "sourcePath": "C:\\Users\\yjitu\\Desktop\\react-voting\\contracts\\CandidateSide.sol",
  "compiler": {
    "name": "solc",
    "version": "0.5.8+commit.23d335f2.Emscripten.clang"
  },
  "schemaVersion": "3.0.10",
  "updatedAt": "2019-06-22T01:04:12.645Z",
  "devdoc": {
    "methods": {}
  },
  "userdoc": {
    "methods": {}
  }
}