{
  "contractName": "PollingAdmin",
  "abi": [
    {
      "constant": true,
      "inputs": [
        {
          "name": "roll_no",
          "type": "uint64"
        },
        {
          "name": "key",
          "type": "bytes32"
        }
      ],
      "name": "validation",
      "outputs": [
        {
          "name": "",
          "type": "bool"
        }
      ],
      "payable": false,
      "stateMutability": "view",
      "type": "function"
    },
    {
      "constant": true,
      "inputs": [
        {
          "name": "vid",
          "type": "uint64"
        }
      ],
      "name": "getvoterkey",
      "outputs": [
        {
          "name": "",
          "type": "bytes32"
        }
      ],
      "payable": false,
      "stateMutability": "pure",
      "type": "function"
    },
    {
      "constant": true,
      "inputs": [
        {
          "name": "",
          "type": "uint64"
        }
      ],
      "name": "Candidate_keys",
      "outputs": [
        {
          "name": "",
          "type": "bytes32"
        }
      ],
      "payable": false,
      "stateMutability": "view",
      "type": "function"
    },
    {
      "constant": true,
      "inputs": [
        {
          "name": "",
          "type": "uint64"
        }
      ],
      "name": "voters",
      "outputs": [
        {
          "name": "vote_given",
          "type": "bool"
        },
        {
          "name": "vote_given_to",
          "type": "bytes32"
        }
      ],
      "payable": false,
      "stateMutability": "view",
      "type": "function"
    },
    {
      "constant": true,
      "inputs": [
        {
          "name": "",
          "type": "uint64"
        }
      ],
      "name": "Candidates",
      "outputs": [
        {
          "name": "name",
          "type": "string"
        },
        {
          "name": "poll_Id",
          "type": "uint64"
        },
        {
          "name": "post",
          "type": "string"
        },
        {
          "name": "key",
          "type": "bytes32"
        },
        {
          "name": "vote_Count",
          "type": "uint64"
        },
        {
          "name": "candidate_Address",
          "type": "string"
        }
      ],
      "payable": false,
      "stateMutability": "view",
      "type": "function"
    },
    {
      "constant": false,
      "inputs": [
        {
          "name": "roll_no",
          "type": "uint64"
        },
        {
          "name": "candidate",
          "type": "uint64"
        },
        {
          "name": "key",
          "type": "bytes32"
        }
      ],
      "name": "Vote",
      "outputs": [],
      "payable": true,
      "stateMutability": "payable",
      "type": "function"
    },
    {
      "constant": false,
      "inputs": [
        {
          "name": "roll_no",
          "type": "uint64"
        }
      ],
      "name": "addvoter",
      "outputs": [],
      "payable": true,
      "stateMutability": "payable",
      "type": "function"
    },
    {
      "constant": true,
      "inputs": [
        {
          "name": "",
          "type": "uint64"
        }
      ],
      "name": "Key",
      "outputs": [
        {
          "name": "",
          "type": "bytes32"
        }
      ],
      "payable": false,
      "stateMutability": "view",
      "type": "function"
    },
    {
      "inputs": [],
      "payable": false,
      "stateMutability": "nonpayable",
      "type": "constructor"
    },
    {
      "constant": false,
      "inputs": [
        {
          "name": "pid",
          "type": "uint64"
        },
        {
          "name": "pname",
          "type": "string"
        }
      ],
      "name": "createPoll",
      "outputs": [],
      "payable": true,
      "stateMutability": "payable",
      "type": "function"
    },
    {
      "constant": false,
      "inputs": [
        {
          "name": "pid",
          "type": "uint64"
        },
        {
          "name": "pos",
          "type": "string"
        }
      ],
      "name": "addpost",
      "outputs": [],
      "payable": true,
      "stateMutability": "payable",
      "type": "function"
    },
    {
      "constant": false,
      "inputs": [
        {
          "name": "cid",
          "type": "uint64"
        },
        {
          "name": "name",
          "type": "string"
        },
        {
          "name": "pid",
          "type": "uint64"
        },
        {
          "name": "post",
          "type": "string"
        },
        {
          "name": "cAddress",
          "type": "string"
        }
      ],
      "name": "addCandidate",
      "outputs": [],
      "payable": true,
      "stateMutability": "payable",
      "type": "function"
    },
    {
      "constant": true,
      "inputs": [
        {
          "name": "pid",
          "type": "uint64"
        }
      ],
      "name": "getCandidates",
      "outputs": [
        {
          "name": "",
          "type": "uint64[]"
        }
      ],
      "payable": false,
      "stateMutability": "view",
      "type": "function"
    },
    {
      "constant": true,
      "inputs": [
        {
          "name": "pid",
          "type": "uint64"
        }
      ],
      "name": "getPosts",
      "outputs": [
        {
          "name": "",
          "type": "string[]"
        }
      ],
      "payable": false,
      "stateMutability": "view",
      "type": "function"
    },
    {
      "constant": false,
      "inputs": [
        {
          "name": "pid",
          "type": "uint64"
        },
        {
          "name": "post",
          "type": "string"
        }
      ],
      "name": "calculateResult",
      "outputs": [],
      "payable": false,
      "stateMutability": "nonpayable",
      "type": "function"
    },
    {
      "constant": true,
      "inputs": [],
      "name": "getResult",
      "outputs": [
        {
          "components": [
            {
              "name": "candidate",
              "type": "string"
            },
            {
              "name": "votes",
              "type": "uint128"
            }
          ],
          "name": "",
          "type": "tuple[]"
        }
      ],
      "payable": false,
      "stateMutability": "view",
      "type": "function"
    }
  ],
  "bytecode": "0x608060405234801561001057600080fd5b5033600260006101000a81548173ffffffffffffffffffffffffffffffffffffffff021916908373ffffffffffffffffffffffffffffffffffffffff16021790555033600560006101000a81548173ffffffffffffffffffffffffffffffffffffffff021916908373ffffffffffffffffffffffffffffffffffffffff160217905550612d45806100a26000396000f3fe6080604052600436106100e85760003560e01c806371fa67471161008a578063b76ffe3a11610059578063b76ffe3a1461030e578063d2dba39514610337578063db09557c14610353578063de29278914610390576100e8565b806371fa67471461027d5780637f2a6872146102995780638a526d85146102d6578063b25b1534146102f2576100e8565b80635835a0d1116100c65780635835a0d1146101a45780635b173a53146101e257806361d7f6341461021f578063622dcdf61461023b576100e8565b806332b4ae74146100ed5780633bc13a231461012a578063566ae59a14610167575b600080fd5b3480156100f957600080fd5b50610114600480360361010f91908101906120d8565b6103bb565b604051610121919061287d565b60405180910390f35b34801561013657600080fd5b50610151600480360361014c91908101906120af565b6103ff565b60405161015e91906128c1565b60405180910390f35b34801561017357600080fd5b5061018e600480360361018991908101906120af565b61042f565b60405161019b91906128c1565b60405180910390f35b3480156101b057600080fd5b506101cb60048036036101c691908101906120af565b610447565b6040516101d9929190612898565b60405180910390f35b3480156101ee57600080fd5b50610209600480360361020491908101906120af565b610478565b6040516102169190612817565b60405180910390f35b61023960048036036102349190810190612168565b610609565b005b34801561024757600080fd5b50610262600480360361025d91908101906120af565b610a8e565b60405161027496959493929190612920565b60405180910390f35b61029760048036036102929190810190612227565b610cba565b005b3480156102a557600080fd5b506102c060048036036102bb91908101906120af565b610fa6565b6040516102cd919061285b565b60405180910390f35b6102f060048036036102eb9190810190612114565b61105c565b005b61030c600480360361030791908101906120af565b61129e565b005b34801561031a57600080fd5b5061033560048036036103309190810190612114565b6113cd565b005b610351600480360361034c9190810190612114565b61177a565b005b34801561035f57600080fd5b5061037a600480360361037591908101906120af565b611abd565b60405161038791906128c1565b60405180910390f35b34801561039c57600080fd5b506103a5611ad5565b6040516103b29190612839565b60405180910390f35b6000816000808567ffffffffffffffff1667ffffffffffffffff1681526020019081526020016000205414156103f457600190506103f9565b600090505b92915050565b6000816040516020016104129190612af6565b604051602081830303815290604052805190602001209050919050565b60036020528060005260406000206000915090505481565b60016020528060005260406000206000915090508060000160009054906101000a900460ff16908060010154905082565b606060011515600660008467ffffffffffffffff1667ffffffffffffffff16815260200190815260200160002060040160109054906101000a900460ff161515146104f8576040517f08c379a00000000000000000000000000000000000000000000000000000000081526004016104ef90612a36565b60405180910390fd5b600660008367ffffffffffffffff1667ffffffffffffffff168152602001908152602001600020600301805480602002602001604051908101604052809291908181526020016000905b828210156105fe578382906000526020600020018054600181600116156101000203166002900480601f0160208091040260200160405190810160405280929190818152602001828054600181600116156101000203166002900480156105ea5780601f106105bf576101008083540402835291602001916105ea565b820191906000526020600020905b8154815290600101906020018083116105cd57829003601f168201915b505050505081526020019060010190610542565b505050509050919050565b60011515600660008567ffffffffffffffff1667ffffffffffffffff16815260200190815260200160002060040160109054906101000a900460ff16151514610687576040517f08c379a000000000000000000000000000000000000000000000000000000000815260040161067e906129d6565b60405180910390fd5b7f30783000000000000000000000000000000000000000000000000000000000006000808767ffffffffffffffff1667ffffffffffffffff168152602001908152602001600020541415610710576040517f08c379a000000000000000000000000000000000000000000000000000000000815260040161070790612ab6565b60405180910390fd5b61082382600660008667ffffffffffffffff1667ffffffffffffffff168152602001908152602001600020600301805480602002602001604051908101604052809291908181526020016000905b8282101561081a578382906000526020600020018054600181600116156101000203166002900480601f0160208091040260200160405190810160405280929190818152602001828054600181600116156101000203166002900480156108065780601f106107db57610100808354040283529160200191610806565b820191906000526020600020905b8154815290600101906020018083116107e957829003601f168201915b50505050508152602001906001019061075e565b50505050611c20565b610862576040517f08c379a000000000000000000000000000000000000000000000000000000000815260040161085990612a56565b60405180910390fd5b846040516020016108739190612af6565b60405160208183030381529060405280519060200120600360008767ffffffffffffffff1667ffffffffffffffff16815260200190815260200160002081905550600660008467ffffffffffffffff1667ffffffffffffffff16815260200190815260200160002060020185908060018154018082558091505090600182039060005260206000209060049182820401919006600802909192909190916101000a81548167ffffffffffffffff021916908367ffffffffffffffff160217905550506040518060c001604052808581526020018467ffffffffffffffff168152602001838152602001600360008867ffffffffffffffff1667ffffffffffffffff168152602001908152602001600020548152602001600067ffffffffffffffff16815260200182815250600460008767ffffffffffffffff1667ffffffffffffffff16815260200190815260200160002060008201518160000190805190602001906109e1929190611ccf565b5060208201518160010160006101000a81548167ffffffffffffffff021916908367ffffffffffffffff1602179055506040820151816002019080519060200190610a2d929190611ccf565b506060820151816003015560808201518160040160006101000a81548167ffffffffffffffff021916908367ffffffffffffffff16021790555060a0820151816005019080519060200190610a83929190611ccf565b509050505050505050565b6004602052806000526040600020600091509050806000018054600181600116156101000203166002900480601f016020809104026020016040519081016040528092919081815260200182805460018160011615610100020316600290048015610b3a5780601f10610b0f57610100808354040283529160200191610b3a565b820191906000526020600020905b815481529060010190602001808311610b1d57829003601f168201915b5050505050908060010160009054906101000a900467ffffffffffffffff1690806002018054600181600116156101000203166002900480601f016020809104026020016040519081016040528092919081815260200182805460018160011615610100020316600290048015610bf25780601f10610bc757610100808354040283529160200191610bf2565b820191906000526020600020905b815481529060010190602001808311610bd557829003601f168201915b5050505050908060030154908060040160009054906101000a900467ffffffffffffffff1690806005018054600181600116156101000203166002900480601f016020809104026020016040519081016040528092919081815260200182805460018160011615610100020316600290048015610cb05780601f10610c8557610100808354040283529160200191610cb0565b820191906000526020600020905b815481529060010190602001808311610c9357829003601f168201915b5050505050905086565b610cc483826103bb565b610d03576040517f08c379a0000000000000000000000000000000000000000000000000000000008152600401610cfa90612996565b60405180910390fd5b6000808467ffffffffffffffff1667ffffffffffffffff1681526020019081526020016000205483604051602001610d3b9190612af6565b6040516020818303038152906040528051906020012014610d91576040517f08c379a0000000000000000000000000000000000000000000000000000000008152600401610d8890612a16565b60405180910390fd5b600360008367ffffffffffffffff1667ffffffffffffffff1681526020019081526020016000205482604051602001610dca9190612af6565b6040516020818303038152906040528051906020012014610e20576040517f08c379a0000000000000000000000000000000000000000000000000000000008152600401610e17906129b6565b60405180910390fd5b60001515600160008567ffffffffffffffff1667ffffffffffffffff16815260200190815260200160002060000160009054906101000a900460ff16151514610e9e576040517f08c379a0000000000000000000000000000000000000000000000000000000008152600401610e95906129f6565b60405180910390fd5b6001600460008467ffffffffffffffff1667ffffffffffffffff16815260200190815260200160002060040160008282829054906101000a900467ffffffffffffffff160192506101000a81548167ffffffffffffffff021916908367ffffffffffffffff16021790555060018060008567ffffffffffffffff1667ffffffffffffffff16815260200190815260200160002060000160006101000a81548160ff021916908315150217905550600360008367ffffffffffffffff1667ffffffffffffffff16815260200190815260200160002054600160008567ffffffffffffffff1667ffffffffffffffff16815260200190815260200160002060010181905550505050565b6060600660008367ffffffffffffffff1667ffffffffffffffff16815260200190815260200160002060020180548060200260200160405190810160405280929190818152602001828054801561105057602002820191906000526020600020906000905b82829054906101000a900467ffffffffffffffff1667ffffffffffffffff168152602001906008019060208260070104928301926001038202915080841161100b5790505b50505050509050919050565b60011515600660008467ffffffffffffffff1667ffffffffffffffff16815260200190815260200160002060040160109054906101000a900460ff161515146110da576040517f08c379a00000000000000000000000000000000000000000000000000000000081526004016110d1906129d6565b60405180910390fd5b600015156111f182600660008667ffffffffffffffff1667ffffffffffffffff168152602001908152602001600020600301805480602002602001604051908101604052809291908181526020016000905b828210156111e8578382906000526020600020018054600181600116156101000203166002900480601f0160208091040260200160405190810160405280929190818152602001828054600181600116156101000203166002900480156111d45780601f106111a9576101008083540402835291602001916111d4565b820191906000526020600020905b8154815290600101906020018083116111b757829003601f168201915b50505050508152602001906001019061112c565b50505050611c20565b151514611233576040517f08c379a000000000000000000000000000000000000000000000000000000000815260040161122a90612ad6565b60405180910390fd5b600660008367ffffffffffffffff1667ffffffffffffffff168152602001908152602001600020600301819080600181540180825580915050906001820390600052602060002001600090919290919091509080519060200190611298929190611d4f565b50505050565b6000801b6000808367ffffffffffffffff1667ffffffffffffffff1681526020019081526020016000205414611309576040517f08c379a000000000000000000000000000000000000000000000000000000000815260040161130090612a96565b60405180910390fd5b60405180604001604052806000151581526020016000801916815250600160008367ffffffffffffffff1667ffffffffffffffff16815260200190815260200160002060008201518160000160006101000a81548160ff021916908315150217905550602082015181600101559050508060405160200161138a9190612af6565b604051602081830303815290604052805190602001206000808367ffffffffffffffff1667ffffffffffffffff1681526020019081526020016000208190555050565b600960006113db9190611dcf565b60008090505b600660008467ffffffffffffffff1667ffffffffffffffff168152602001908152602001600020600201805490508167ffffffffffffffff161015611775576000600660008567ffffffffffffffff1667ffffffffffffffff1681526020019081526020016000206002018267ffffffffffffffff168154811061146157fe5b90600052602060002090600491828204019190066008029054906101000a900467ffffffffffffffff1690506060600460008367ffffffffffffffff1667ffffffffffffffff1681526020019081526020016000206002018054600181600116156101000203166002900480601f01602080910402602001604051908101604052809291908181526020018280546001816001161561010002031660029004801561154d5780601f106115225761010080835404028352916020019161154d565b820191906000526020600020905b81548152906001019060200180831161153057829003601f168201915b505050505090508360405160200161156591906128fe565b604051602081830303815290604052805190602001208160405160200161158c91906128fe565b6040516020818303038152906040528051906020012014156117665760096040518060400160405280600460008667ffffffffffffffff1667ffffffffffffffff1681526020019081526020016000206000018054600181600116156101000203166002900480601f0160208091040260200160405190810160405280929190818152602001828054600181600116156101000203166002900480156116735780601f1061164857610100808354040283529160200191611673565b820191906000526020600020905b81548152906001019060200180831161165657829003601f168201915b50505050508152602001600460008667ffffffffffffffff1667ffffffffffffffff16815260200190815260200160002060040160009054906101000a900467ffffffffffffffff1667ffffffffffffffff166fffffffffffffffffffffffffffffffff16815250908060018154018082558091505090600182039060005260206000209060020201600090919290919091506000820151816000019080519060200190611722929190611ccf565b5060208201518160010160006101000a8154816fffffffffffffffffffffffffffffffff02191690836fffffffffffffffffffffffffffffffff1602179055505050505b505080806001019150506113e1565b505050565b60001515600660008467ffffffffffffffff1667ffffffffffffffff16815260200190815260200160002060040160109054906101000a900460ff161515146117f8576040517f08c379a00000000000000000000000000000000000000000000000000000000081526004016117ef90612a76565b60405180910390fd5b6040518060c001604052808367ffffffffffffffff168152602001828152602001600780548060200260200160405190810160405280929190818152602001828054801561189957602002820191906000526020600020906000905b82829054906101000a900467ffffffffffffffff1667ffffffffffffffff16815260200190600801906020826007010492830192600103820291508084116118545790505b505050505081526020016008805480602002602001604051908101604052809291908181526020016000905b82821015611981578382906000526020600020018054600181600116156101000203166002900480601f01602080910402602001604051908101604052809291908181526020018280546001816001161561010002031660029004801561196d5780601f106119425761010080835404028352916020019161196d565b820191906000526020600020905b81548152906001019060200180831161195057829003601f168201915b5050505050815260200190600101906118c5565b50505050815260200160006fffffffffffffffffffffffffffffffff16815260200160011515815250600660008467ffffffffffffffff1667ffffffffffffffff16815260200190815260200160002060008201518160000160006101000a81548167ffffffffffffffff021916908367ffffffffffffffff1602179055506020820151816001019080519060200190611a1c929190611ccf565b506040820151816002019080519060200190611a39929190611df3565b506060820151816003019080519060200190611a56929190611eaf565b5060808201518160040160006101000a8154816fffffffffffffffffffffffffffffffff02191690836fffffffffffffffffffffffffffffffff16021790555060a08201518160040160106101000a81548160ff0219169083151502179055509050505050565b60006020528060005260406000206000915090505481565b60606009805480602002602001604051908101604052809291908181526020016000905b82821015611c175783829060005260206000209060020201604051806040016040529081600082018054600181600116156101000203166002900480601f016020809104026020016040519081016040528092919081815260200182805460018160011615610100020316600290048015611bb55780601f10611b8a57610100808354040283529160200191611bb5565b820191906000526020600020905b815481529060010190602001808311611b9857829003601f168201915b505050505081526020016001820160009054906101000a90046fffffffffffffffffffffffffffffffff166fffffffffffffffffffffffffffffffff166fffffffffffffffffffffffffffffffff168152505081526020019060010190611af9565b50505050905090565b600080600090505b82518167ffffffffffffffff161015611cc357828167ffffffffffffffff1681518110611c5157fe5b6020026020010151604051602001611c6991906128dc565b6040516020818303038152906040528051906020012084604051602001611c9091906128fe565b604051602081830303815290604052805190602001201415611cb6576001915050611cc9565b8080600101915050611c28565b50600090505b92915050565b828054600181600116156101000203166002900490600052602060002090601f016020900481019282601f10611d1057805160ff1916838001178555611d3e565b82800160010185558215611d3e579182015b82811115611d3d578251825591602001919060010190611d22565b5b509050611d4b9190611f0f565b5090565b828054600181600116156101000203166002900490600052602060002090601f016020900481019282601f10611d9057805160ff1916838001178555611dbe565b82800160010185558215611dbe579182015b82811115611dbd578251825591602001919060010190611da2565b5b509050611dcb9190611f0f565b5090565b5080546000825560020290600052602060002090810190611df09190611f34565b50565b82805482825590600052602060002090600301600490048101928215611e9e5791602002820160005b83821115611e6857835183826101000a81548167ffffffffffffffff021916908367ffffffffffffffff1602179055509260200192600801602081600701049283019260010302611e1c565b8015611e9c5782816101000a81549067ffffffffffffffff0219169055600801602081600701049283019260010302611e68565b505b509050611eab9190611f86565b5090565b828054828255906000526020600020908101928215611efe579160200282015b82811115611efd578251829080519060200190611eed929190611ccf565b5091602001919060010190611ecf565b5b509050611f0b9190611fbd565b5090565b611f3191905b80821115611f2d576000816000905550600101611f15565b5090565b90565b611f8391905b80821115611f7f5760008082016000611f539190611fe9565b6001820160006101000a8154906fffffffffffffffffffffffffffffffff021916905550600201611f3a565b5090565b90565b611fba91905b80821115611fb657600081816101000a81549067ffffffffffffffff021916905550600101611f8c565b5090565b90565b611fe691905b80821115611fe25760008181611fd99190611fe9565b50600101611fc3565b5090565b90565b50805460018160011615610100020316600290046000825580601f1061200f575061202e565b601f01602090049060005260206000209081019061202d9190611f0f565b5b50565b60008135905061204081612cdd565b92915050565b600082601f83011261205757600080fd5b813561206a61206582612b3e565b612b11565b9150808252602083016020830185838301111561208657600080fd5b612091838284612c8a565b50505092915050565b6000813590506120a981612cf4565b92915050565b6000602082840312156120c157600080fd5b60006120cf8482850161209a565b91505092915050565b600080604083850312156120eb57600080fd5b60006120f98582860161209a565b925050602061210a85828601612031565b9150509250929050565b6000806040838503121561212757600080fd5b60006121358582860161209a565b925050602083013567ffffffffffffffff81111561215257600080fd5b61215e85828601612046565b9150509250929050565b600080600080600060a0868803121561218057600080fd5b600061218e8882890161209a565b955050602086013567ffffffffffffffff8111156121ab57600080fd5b6121b788828901612046565b94505060406121c88882890161209a565b935050606086013567ffffffffffffffff8111156121e557600080fd5b6121f188828901612046565b925050608086013567ffffffffffffffff81111561220e57600080fd5b61221a88828901612046565b9150509295509295909350565b60008060006060848603121561223c57600080fd5b600061224a8682870161209a565b935050602061225b8682870161209a565b925050604061226c86828701612031565b9150509250925092565b60006122828383612455565b905092915050565b600061229683836127ad565b905092915050565b60006122aa83836127f9565b60208301905092915050565b60006122c182612b91565b6122cb8185612bef565b9350836020820285016122dd85612b6a565b8060005b8581101561231957848403895281516122fa8582612276565b945061230583612bc8565b925060208a019950506001810190506122e1565b50829750879550505050505092915050565b600061233682612b9c565b6123408185612c00565b93508360208202850161235285612b77565b8060005b8581101561238e578484038952815161236f858261228a565b945061237a83612bd5565b925060208a01995050600181019050612356565b50829750879550505050505092915050565b60006123ab82612ba7565b6123b58185612c11565b93506123c083612b84565b8060005b838110156123f15781516123d8888261229e565b97506123e383612be2565b9250506001810190506123c4565b5085935050505092915050565b61240781612c44565b82525050565b61241681612c50565b82525050565b600061242782612bbd565b6124318185612c33565b9350612441818560208601612c99565b61244a81612ccc565b840191505092915050565b600061246082612bb2565b61246a8185612c22565b935061247a818560208601612c99565b61248381612ccc565b840191505092915050565b600061249982612bb2565b6124a38185612c33565b93506124b3818560208601612c99565b6124bc81612ccc565b840191505092915050565b60006124d4600d83612c33565b91507f496e76616c696420566f746572000000000000000000000000000000000000006000830152602082019050919050565b6000612514600f83612c33565b91507f4e6f7420612043616e64696461746500000000000000000000000000000000006000830152602082019050919050565b6000612554601083612c33565b91507f506f6c6c206e6f742070726573656e74000000000000000000000000000000006000830152602082019050919050565b6000612594601f83612c33565b91507f496e76616c696420566f746520616c726561647920766f746520676976656e006000830152602082019050919050565b60006125d4600b83612c33565b91507f4e6f74206120766f7465720000000000000000000000000000000000000000006000830152602082019050919050565b6000612614601383612c33565b91507f506f6c6c206973206e6f742050726573656e74000000000000000000000000006000830152602082019050919050565b6000612654601283612c33565b91507f706f736974696f6e204e6f7420466f756e6400000000000000000000000000006000830152602082019050919050565b6000612694602983612c33565b91507f6475706c6963617465206f636375726564202d3e20506f6c6c20616c7265616460008301527f792070726573656e7400000000000000000000000000000000000000000000006020830152604082019050919050565b60006126fa600f83612c33565b91507f416c7265616479206120766f74657200000000000000000000000000000000006000830152602082019050919050565b600061273a601883612c33565b91507f43616e6469646174652045786973747320616c726561647900000000000000006000830152602082019050919050565b600061277a601483612c33565b91507f506f737420416c72656164792050726573656e740000000000000000000000006000830152602082019050919050565b600060408301600083015184820360008601526127ca8282612455565b91505060208301516127df60208601826127ea565b508091505092915050565b6127f381612c5a565b82525050565b61280281612c76565b82525050565b61281181612c76565b82525050565b6000602082019050818103600083015261283181846122b6565b905092915050565b60006020820190508181036000830152612853818461232b565b905092915050565b6000602082019050818103600083015261287581846123a0565b905092915050565b600060208201905061289260008301846123fe565b92915050565b60006040820190506128ad60008301856123fe565b6128ba602083018461240d565b9392505050565b60006020820190506128d6600083018461240d565b92915050565b600060208201905081810360008301526128f6818461248e565b905092915050565b60006020820190508181036000830152612918818461241c565b905092915050565b600060c082019050818103600083015261293a818961248e565b90506129496020830188612808565b818103604083015261295b818761248e565b905061296a606083018661240d565b6129776080830185612808565b81810360a0830152612989818461248e565b9050979650505050505050565b600060208201905081810360008301526129af816124c7565b9050919050565b600060208201905081810360008301526129cf81612507565b9050919050565b600060208201905081810360008301526129ef81612547565b9050919050565b60006020820190508181036000830152612a0f81612587565b9050919050565b60006020820190508181036000830152612a2f816125c7565b9050919050565b60006020820190508181036000830152612a4f81612607565b9050919050565b60006020820190508181036000830152612a6f81612647565b9050919050565b60006020820190508181036000830152612a8f81612687565b9050919050565b60006020820190508181036000830152612aaf816126ed565b9050919050565b60006020820190508181036000830152612acf8161272d565b9050919050565b60006020820190508181036000830152612aef8161276d565b9050919050565b6000602082019050612b0b6000830184612808565b92915050565b6000604051905081810181811067ffffffffffffffff82111715612b3457600080fd5b8060405250919050565b600067ffffffffffffffff821115612b5557600080fd5b601f19601f8301169050602081019050919050565b6000602082019050919050565b6000602082019050919050565b6000602082019050919050565b600081519050919050565b600081519050919050565b600081519050919050565b600081519050919050565b600081519050919050565b6000602082019050919050565b6000602082019050919050565b6000602082019050919050565b600082825260208201905092915050565b600082825260208201905092915050565b600082825260208201905092915050565b600082825260208201905092915050565b600082825260208201905092915050565b60008115159050919050565b6000819050919050565b60006fffffffffffffffffffffffffffffffff82169050919050565b600067ffffffffffffffff82169050919050565b82818337600083830152505050565b60005b83811015612cb7578082015181840152602081019050612c9c565b83811115612cc6576000848401525b50505050565b6000601f19601f8301169050919050565b612ce681612c50565b8114612cf157600080fd5b50565b612cfd81612c76565b8114612d0857600080fd5b5056fea265627a7a7230582048b0318b53e0a0323aea6416b264ad7810222a544032ed131810b9283b24fb3e6c6578706572696d656e74616cf50037",
  "source": "pragma solidity ^0.5.0;\npragma experimental ABIEncoderV2;\n\nimport './CandidateSide.sol';\ncontract PollingAdmin is CandidateSide{\n  address owner;\n  struct poll{\n    uint64 poll_id;\n    string pollname;\n    uint64[] candidates;\n    string[] positions;\n    uint128 total_votes;\n    bool isValue;\n  }\n  mapping(uint64=> poll) private polls;\n  constructor() public {\n    owner = msg.sender;\n  }\nuint64[] private cids;\nstring[] private posts;\n  function createPoll(uint64 pid,string memory pname) public payable{\n    require(polls[pid].isValue == false, \"duplicate occured -> Poll already present\");\n    polls[pid] = poll(pid,pname,cids,posts,0,true);\n  }\n  function isPost(string memory post,string[] memory postss) private pure returns(bool){\n      for(uint64 i = 0; i<postss.length;i++){\n          if(keccak256(abi.encode(post))==keccak256(abi.encode(postss[i])))\n            return true;\n      }\n      return false;\n  }\n\n  function addpost(uint64 pid,string memory pos) public payable {\n    require(polls[pid].isValue == true,\"Poll not present\");\n    require(isPost(pos,polls[pid].positions) == false, \"Post Already Present\");\n    polls[pid].positions.push(pos);\n  }\n\n  function addCandidate(uint64 cid, string memory name, uint64 pid,string memory post, string memory cAddress) public payable{\n    require(polls[pid].isValue == true,\"Poll not present\");\n    require(Key[cid] != \"0x0\",\"Candidate Exists already\");\n    require(isPost(post,polls[pid].positions),\"position Not Found\");\n    Candidate_keys[cid] = keccak256(abi.encode(cid));\n    polls[pid].candidates.push(cid);\n    Candidates[cid] = Candidate(name,pid,post,Candidate_keys[cid],0,cAddress);\n  }\n\n  function getCandidates(uint64 pid)public view returns(uint64[] memory){\n      return polls[pid].candidates;\n  }\n\n  function getPosts(uint64 pid) public view returns(string[] memory){\n    require(polls[pid].isValue==true, \"Poll is not Present\");\n    return polls[pid].positions;\n  }\n\n  struct result{\n    string candidate;\n    uint128 votes;\n  }\n  result[] private res;\n\n  function calculateResult(uint64 pid, string memory post)public{\n    delete res;\n    for(uint64 i = 0; i < polls[pid].candidates.length; i++){\n      uint64 cid = polls[pid].candidates[i];\n      string memory pos = Candidates[cid].post;\n      if(keccak256(abi.encode(pos)) == keccak256(abi.encode(post)))\n        res.push(result(Candidates[cid].name,Candidates[cid].vote_Count));\n    }\n  }\n\n  function getResult() public view returns(result[] memory){\n      return res;\n  }\n}\n",
  "sourcePath": "C:/Users/yjitu/Desktop/react-voting/contracts/PollingAdmin.sol",
  "compiler": {
    "name": "solc",
    "version": "0.5.8+commit.23d335f2.Emscripten.clang"
  },
  "schemaVersion": "3.0.10",
  "updatedAt": "2019-06-22T01:04:12.140Z",
  "devdoc": {
    "methods": {}
  },
  "userdoc": {
    "methods": {}
  }
}